:020000040000FA
:10000000782E00209D010000B9010000BB01000016
:1000100000000000000000000000000000000000E0
:10002000000000000000000000000000BD01000012
:100030000000000000000000BF010000C10100003E
:10004000C301000009760000C3010000C3010000E5
:1000500015530000C301000019660000C301000031
:10006000F572000071730000C3010000C3010000BD
:10007000B1730000C3010000C3010000C301000010
:10008000C3010000C3010000C3010000C301000060
:10009000C3010000C3010000C3010000C301000050
:1000A000C3010000C3010000B1640000C3010000EF
:1000B000054E0000C3010000C3010000F16A00000A
:1000C00000F002F800F03EF80CA030C80838241800
:1000D0002D18A246671EAB4654465D46AC4201D180
:1000E00000F030F87E460F3E0FCCB6460126334274
:1000F00000D0FB1AA246AB4633431847609200007B
:1001000080920000103A02D378C878C1FAD852071A
:1001100001D330C830C101D504680C6070470000BD
:100120000023002400250026103A01D378C1FBD813
:10013000520700D330C100D50B6070471FB51FBDFB
:1001400010B510BD00F071F91146FFF7F7FF07F089
:100150007BFA00F089F903B4FFF7F2FF03BC00F06B
:100160008FF9000070B505460C46164602E00FCC2C
:100170000FC5103E102EFAD2082E02D303CC03C5B1
:10018000083E042E07D301CC01C5361F03E02178B9
:100190002970641C6D1C761EF9D270BD0C480D4987
:1001A00001600D4901600D4901600D4A0D49116062
:1001B000002101600C480047FEE7FEE7FEE7FEE78E
:1001C000FEE7FEE709480A490A4A0B4B7047000060
:1001D00000010050590000001600000088000000D7
:1001E00024000050A55A0000C1000000782800201B
:1001F000782E0020782A0020782A002001E004C010
:10020000091F0429FBD28B0701D50280801CC90776
:1002100000D00270704700290BD0C30702D00270D3
:10022000401C491E022904D3830702D50280801C8A
:10023000891EE3E70022EEE70022DFE70022030940
:100240008B4273D3030A8B4258D3030B8B423CD3AC
:10025000030C8B4221D312E003460B437FD40022D0
:1002600043088B4274D303098B425FD3030A8B424A
:1002700044D3030B8B4228D3030C8B420DD3FF22B4
:10028000090212BA030C8B4202D31212090265D082
:10029000030B8B4219D300E0090AC30B8B4201D335
:1002A000CB03C01A5241830B8B4201D38B03C01A7C
:1002B0005241430B8B4201D34B03C01A5241030BF3
:1002C0008B4201D30B03C01A5241C30A8B4201D3A4
:1002D000CB02C01A5241830A8B4201D38B02C01A4F
:1002E0005241430A8B4201D34B02C01A5241030AC6
:1002F0008B4201D30B02C01A5241CDD2C3098B42AB
:1003000001D3CB01C01A524183098B4201D38B0127
:10031000C01A524143098B4201D34B01C01A5241CA
:1003200003098B4201D30B01C01A5241C3088B420F
:1003300001D3CB00C01A524183088B4201D38B00FA
:10034000C01A524143088B4201D34B00C01A52419C
:10035000411A00D201465241104670475DE0CA0F73
:1003600000D04942031000D34042534000229C4633
:1003700003098B422DD3030A8B4212D3FC2289013D
:1003800012BA030A8B420CD3890192118B4208D313
:10039000890192118B4204D389013AD0921100E075
:1003A0008909C3098B4201D3CB01C01A5241830989
:1003B0008B4201D38B01C01A524143098B4201D3B6
:1003C0004B01C01A524103098B4201D30B01C01AE1
:1003D0005241C3088B4201D3CB00C01A524183085B
:1003E0008B4201D38B00C01A5241D9D243088B42B1
:1003F00001D34B00C01A5241411A00D20146634654
:1004000052415B10104601D34042002B00D54942B7
:10041000704763465B1000D3404201B50020C046E0
:10042000C04602BD704770477047754600F024F81B
:10043000AE46050069465346C008C000854618B060
:1004400020B5FFF7BFFE60BC00274908B64600266E
:10045000C0C5C0C5C0C5C0C5C0C5C0C5C0C5C0C574
:10046000403D49008D46704710B50446C046C04621
:100470002046FFF770FE10BD00487047142800208A
:1004800001491820ABBEFEE72600020070470000BD
:1004900002498A6A88620120C862704700000840E9
:1004A0007047000010B5104B1C6900241C6101242A
:1004B0006403A04203D118690321490306E0012423
:1004C0002403A04205D118690521090308431861D6
:1004D00010BD064CA042FBD11869084301218903D5
:1004E0000A431043F3E7000040000840FF0F0000FC
:1004F0000A4910B5884202DB0949884200DD0846F6
:100500004B210C010019FFF7A7FE80060549800E5C
:1005100088624B214843001B10BD000050FBFFFFC9
:10052000C50D00004000084010B50E4800240470BE
:1005300006F0F2F90C4805F0BBF900210B4800F079
:10054000F2F80B4908700B48032144670A488903F5
:1005500004700A4807F01FF8002802D000F0B0F835
:1005600010BDFEE711000020F4000020296E0000FD
:1005700012000020742700201000002088030020B3
:10058000F8B5364F00243888354E2546002804D16A
:10059000B068012189028843B06032480078C00702
:1005A0000CD0314804F0EAFE002823D100F09AF87C
:1005B0007D21C9012C4805F09AF91BE069462A48BB
:1005C00005F081F982B22948009906F0ABFFC0B26C
:1005D0002749FF2848700DD02649274A00280ED009
:1005E0003B88002B06D01378002B18D039800228C6
:1005F00021D004462946204606F068FDF8BD107853
:10060000012807D01D483880B068012189020843BD
:10061000B060EFE73980002000F036F8F4E70128F9
:10062000E8D1B16883031943B16001250446157010
:1006300000203880DEE7B16801239B039943B16055
:10064000B1685B009943B1600D4B002159800D4B9F
:1006500004465980398001251170CBE7060000203F
:100660000040005011000020F4000020880300200A
:100670001200002010270000100000208813000046
:10068000E8000020DC00002010B504460A4805F010
:1006900042F900221146084804F05EFE0748002394
:1006A000426F2146044804F0E5FE002802D006F01F
:1006B000CDF9012010BD0000F400002074270020B7
:1006C00010B5064806F043FF002805D07D21C9017A
:1006D000034805F00CF9012010BD0000880300203C
:1006E000F400002010B506F0DDF9024804F0DAFE4F
:1006F000012010BDF4000020F0B585B015461C4661
:100700000E4607466A4600F015F80098A84208D938
:100710000298E900411808222046B847206880194D
:10072000206005B0F0BD08B503460422684698472E
:10073000009808BD70B5144603460D4610222046A9
:100740009847A0684019A060E0684019E06070BD5B
:1007500010B5094804F078FB0020401CC0B22028E6
:10076000FBD300F00DF8054800F018F80020401CFD
:10077000C0B22028FBD310BD120000400C7800004E
:10078000054908680822104308600020401C80B218
:100790002028FBD97047000040000B4070B50F4C7B
:1007A0000E4B403421680425A94321602168294368
:1007B00021600021491CC9B22029FBD921682943A5
:1007C000216000218A0086589E50491CC9B20F2919
:1007D000F8D32068A843206070BD000000000B40E3
:1007E000002803D0820701D11C2901D800207047BE
:1007F00002460C321C39890889000260002381609E
:10080000C36043618361426001617047C91C70B479
:100810008B089B000246002B1ADD9068984217DB7C
:100820005068002814D00168002902D1416899421B
:1008300003DA80680028F6D10AE0002808D0CD1A33
:100840000126202D07D8066091684368C91A18E070
:1008500070BC00207047C118C4681031103D06609C
:10086000C1604D604360002C00D0A160CC60886006
:1008700000240C605468844200D151609168C91A08
:100880001039916070BC1030704730B410398B68EB
:10089000002B02D01A68002A21D00025CA68002A3D
:1008A00002D01468002C1CD00024002D1BD0002C7A
:1008B00033D05C684D686519546820342C195C602D
:1008C000D468DC60D468002C00D0A36044689442F3
:1008D00000D14360826849685118203130E0012519
:1008E000DCE70124E1E70023002C0B602BD0D36868
:1008F000CB60D368002B00D099604368934200D14D
:10090000416083684C681B191033836048685268E3
:1009100080181030486030BC70475A684C68121913
:1009200010325A60CA68DA60CA68002A00D0936040
:1009300042688A4200D14360826849685118103188
:10094000816030BC7047826849685118816030BC52
:100950007047FFB581B0054602981F46C11FF9399F
:100960005DD1002F5BDD0C2F59DC002D57D0952673
:10097000B60031462846FFF749FF04004FD0324603
:10098000002103F086F9E61DFF36FA36F564029879
:10099000C500FF35913504F014FA451904F011FA39
:1009A000281A3065029820600398A76060600220D2
:1009B0000025C10165612161E0600420A06120463D
:1009C00002F0A2FB25626562A562E562E061214654
:1009D0003046A2684C3180387B00C162C91801637F
:1009E000C9184163C9188163C918C163C918016472
:1009F000C918CB188364521C416451005A18C26450
:100A000052180265521842655218826552185118E0
:100A1000C26501667564B564204605B0F0BD00206E
:100A200005B0F0BD010001D1401F704710B5932003
:100A300080004058FFF729FF002010BDFFB583B0AC
:100A400004007DD0E01DFF30FA300290016DC06CD3
:100A5000FFF7DCFE0190002876D004210A1A9207E5
:100A6000920F1618304634300A1A9207920F151852
:100A700028463430091A8907890F0F1838460C990F
:100A80003430002901D00021E16200903246204636
:100A90000C9B049902F018F80698002801D03168E0
:100AA0000160E068012805DB2A46314620460C9BA0
:100AB00002F0E8F8E068022807DB0C9800903B465B
:100AC0002A463146204602F0B5F9E06A401CE06251
:100AD000E1684A00891888423ADD05980090A068CC
:100AE000311D8200009803F0E9F8A06882000098A8
:100AF0001618E068012817DB291D304603F0DEF8E0
:100B0000A0688200E068961902280DDB391D304686
:100B1000083A03F0D3F8A06880008619083E2868D8
:100B2000306038687060083602980199C06CFFF731
:100B3000ACFE059807B0301A8010F0BD00E003E06D
:100B40000420C04307B0F0BD0920C04307B0F0BD8A
:100B500002980199C06CFFF798FE0220C04307B0CD
:100B6000F0BD70B505000ED02C46FF34A96D813460
:100B7000002902D0E06DFFF788FE2946E06DFFF7FF
:100B800084FE002070BD0020C04370BD002808D046
:100B90000A46FF23CC3A36339A4205D32820C04375
:100BA00070470420C043704710B502F0ADFA002032
:100BB00010BD10B58038812801D3002010BD9524C8
:100BC000A40004F0FEF8001910BD01468039812907
:100BD00001D30020704710B5C400FF34913404F0F5
:100BE000F0F8001910BD000070B400284AD0816BE5
:100BF00000294BD0C16F00268A1C264C002A0ADD32
:100C00000022891C5300856B491EEC52C56B521C97
:100C1000EE520029F6D1816B0E80816C0E80416C02
:100C20000E80C16C0E80816F002909DD0022530007
:100C3000056D491EEE52056C521CEE520029F6D18C
:100C4000416E002915DD0022C907C90F02D0826D4F
:100C500014800122436E8B420BDD5500836D521CC4
:100C60005C53836D55005C53436E891C521C8B4250
:100C7000F3DCFF308130466401218664816570BCFD
:100C80000020704770BC0020C043704770BC01203A
:100C9000C0437047589EFFFF002801D0002902D1B1
:100CA0000020C043704770B50446806B0D46002895
:100CB00026D0204600F0B6FA204600F0EDF929468D
:100CC000204600F031FB2946204600F04FFBE61D90
:100CD000F936F0672946204600F03CFDF067A26B2C
:100CE0000021515E3546803588420CD0E06FE16BC3
:100CF0004000801C085E0F2805DA286C401C03E0C9
:100D00000120C04370BD00202864142801DB0120AD
:100D100000E00020E8632046F16F00F0DFFD32289C
:100D200002DD204600F0CCFE2046F16F00F078FD99
:100D3000296D814202DA204600F0F4FD204600F0E1
:100D400061FE204600F024FF686CA26C4100535EF7
:100D50000D4A934203DBE36C595E914205DA20466B
:100D6000FFF742FF0920C04370BD401C6864E96C76
:100D7000884204DBA86C401CA864002068642046FC
:100D800000F06EFF70BD000068C5FFFFFFB581B0C9
:100D9000060036D00298002833DD3068002830D0B5
:100DA000039900292DDB049900292ADBFF25ED3565
:100DB000876C0024A0003058002822D00146826CA5
:100DC0004031BA421DD1096849004A1989180422E4
:100DD000521A9207920F5518002C16D00022114675
:100DE00000F03DF845190298641C8442E2DB03F0F0
:100DF000E8FF0A994019002905D08A6C4031BA42AF
:100E00000AD00020C04305B0F0BD3068049A0399B1
:100E100000F025F84519E6E70A684968891A49008B
:100E200008180421091A8907890F0C1803F0C9FF53
:100E3000001905B0F0BD002804D0092905D32820E9
:100E4000C04370470420C043704781610020704751
:100E5000002801D0806870470420C04370470028F4
:100E600003D0002901DB002A02DA0020C0437047CA
:100E700070B5034640300568406804224000041DF8
:100E8000161BB607B60F34190419241D101B800752
:100E9000800F00196C002018161AB607B60F30180C
:100EA0002018141AA407A40F241848000119541A72
:100EB000A407A40F61184118541AA407A40F6118BD
:100EC0004018111A8907890F0C18002D1BDD987D19
:100ED000800618D5184602F0F5FF066801220021A9
:100EE0004568002E07DD9300C358AB4203D19A1822
:100EF000491CB142F7DBB14201DB241D03E0F61CC3
:100F0000B00880000419204670BD0000012801DCF3
:100F10000020704700210246491C0A41012AFAD1EB
:100F200092020A2903DC0A235B1A984002E00B466E
:100F30000A3B1841801A034A4000105E4902081813
:100F40007047000064820000FFB591B080300E90C1
:100F5000C2680069101A0790981006904868083116
:100F600040004008049006988000421808904748C6
:100F700002901A98002802D00023DB43036000206F
:100F800003900498002874DD0E9B00209B68864621
:100F90009C46069B13980025002B51DD0C681668B3
:100FA0001096360C0C9606682316F31A0F936346B8
:100FB0001F786646331D9C460F9B0C9E5B43734314
:100FC0003B4176469E190096109E2314B7B24668A0
:100FD0005BB2F31ABE46664667463F1DBC4636788E
:100FE0005B4377467B433341009E171D9B1900935B
:100FF0003B6810931E0C2212836852B29A1AB646AE
:1010000063466646361DB4461B78524376467243A5
:101010001A41009B6646D3189E46109B62B29CB252
:10102000C3689A1A3378361D524362431A41B44654
:101030009644069B3A1D1030091D6D1C9D42ADDB88
:101040000799704608411168401040180299814282
:1010500006DD02901A98002802D01A9903980860B9
:101060000898111D42180398049B401C0390984255
:101070008ADB0E980299007C054A01414842511AC8
:10108000521C914200D3034815B0F0BDFFFFFF7F13
:101090008813000078ECFFFFF0B58646846BC36BC5
:1010A00085B0002001907046FF30013004908069C7
:1010B000009001200390002002907046806F00286D
:1010C00072DD0198029980007044FF300130006C9D
:1010D000884201DD009809E00198401C81000190E0
:1010E00070460818FF30013080690090406803990D
:1010F0003E22401884464000195A0719491C1952CB
:101100003E46403E215EB25E91420EDA22520121FD
:101110001952C1184039CA8F71460D6C02994900A5
:101120006A5275462D6DF28F6A52039A6546614682
:10113000AD1A491E6A1E002A19DDC118BA1E891E81
:101140006D1E08881746401C08800020403F3E2640
:10115000105EBE5FB04205DA084616804038C08F88
:10116000401C0880891E921E6D1EEAD1039948001A
:10117000195A491C19520021225E615E8A4202DA24
:101180002152012119526046401C039000980068CA
:1011900081000098081800900298401C0290704648
:1011A000816F029881428CDC7046C06F0222400041
:1011B000C1184888401C48807046C06F4000011923
:1011C0008A5E205E824206DA48807146C96F01203D
:1011D0004900C91848807046C06F4000195A491C20
:1011E00019527046C06F41000020625E205E82424C
:1011F00005DA60527146C96F0120490058527046A5
:10120000C06F00224000A25E215E8A4207DAC01849
:101210000222825E0498406F824200DD218005B088
:10122000F0BD0000F0B5846D82B0002C6CD03D495B
:10123000036E8E460021C26D0D460093002B0EDD1D
:1012400051683E2749194D002E19403EF75F7745FA
:101250005CDC16680D46B600B2185B1EF0D14A0081
:10126000A15E7346714500DC1946A152816B0022D4
:101270008A5E724550DCC76D00208446019000985C
:10128000002841DD796860460E186146711A701EAB
:101290004D1E002D27DDCA07700001210019C90766
:1012A000CA420AD00346403B3E213C22595E9A5E28
:1012B000914200DC1146D987801E6B1012D0024685
:1012C000403A3E253C21555F515E8D4200DC0D4683
:1012D000D5873A25555FA94200DC2946001F918732
:1012E0005B1EECD160464100605E7246704500DCDA
:1012F00010466052386800998000C7190198B446BA
:10130000401C01908842BDDB02B0F0BD2D19403D6C
:101310003E26AE5FB6469CE7826B0021515E8E464C
:10132000A9E70000589EFFFF10B480300368002B2F
:101330001ADD4268091F121FDB0705D014794B68BC
:10134000A3404B60091D121D006840100CD0147999
:101350004B68A3404B60147A8B68A3408B60401E9F
:10136000083108320028F2D110BC7047F3B59BB0A9
:10137000002004901B98F64F846B0297416FFF305A
:101380008130059000290ADDC06D3E21FFF73EFA4D
:101390003E220021049002F07CFC002013901B9858
:1013A00000260096803014900368816B1C9A1B986D
:1013B000FFF7CAFD0096069014981C9A0368C16B4B
:1013C0001B98FFF7C1FD0699814200DD08461B9975
:1013D0001290886621881298081800B22080B842BE
:1013E00000DD029011A8009014981C9A0368016C0B
:1013F0001B98FFF7A9FD0599054608601498416CF4
:1014000000291FD0119800280EDDC20702D00A68FB
:1014100092005118401007D00A68920051180A68CB
:1014200092005118401EF7D1486800280ADD009646
:1014300014981C9A03681B98FFF786FD854271DBA0
:10144000059908600598406D281A039000200890BF
:101450001B980125FF300130806917901B98406868
:101460001890002015901B98806F00287EDD08984A
:101470001B9980004018FF300130016C15988142A3
:101480000BDC0898401C810008901B980818FF216D
:10149000193109581791406818901798179E40689D
:1014A000109018980836807D80063CD4109800274C
:1014B00000287DDD68000A90215EA548814228DD74
:1014C000002000901498314603681C9A1B98FFF77F
:1014D0003BFD7168002903DA0699884200DA084664
:1014E0000A990A9A615A091809B2A152029A9142BC
:1014F0007EDC049900290CD00399401A09D41E28D7
:1015000077DC049940000A5A521C0A521398401C76
:10151000139030686D1C8000861910987F1C8742DC
:10152000C8DB73E0F2E01098002700286EDD089811
:101530001B99800040188030199068000A90215E45
:10154000834881425DDD1B98199B8646B8000B904D
:101550001C9930581A6F8C464000116840080129C8
:1015600007D041438800001D9A6C00E067E0111825
:1015700018E08108890052589B6C9200D218401ADA
:1015800000280EDDC10702D0116889008A184010BA
:1015900007D01168890089180A6892005218401E05
:1015A000F7D111460020009070468030624600E07E
:1015B0002CE003687046FFF7C7FC0B9971580029AF
:1015C00003DA0699884200DA08460A990A9A615AAB
:1015D000091809B2A152029A91427DDC04990029AE
:1015E0000FD00399401A0CD41E2876DC400001E08D
:1015F0008EE091E004990A5A521C0A521398401C3A
:10160000139010986D1C7F1C874296DB6900625A0C
:101610001298101800B260520299884275DC17982F
:101620006D1C006881001798081817901598401CC9
:1016300015901B98816F1598814200DD17E704987B
:10164000002812D01B98426F139882420DDC0020B4
:101650001E21049B4D005B5F1818824202DD491E6B
:101660000029F6DC0398401803901B980399C06F7B
:101670004000225A511809B221521B98029AC06F99
:101680004000914254DC01194A881298101800B2A7
:101690004880029988424EDC05982288416C1B984C
:1016A000436C48001A52059A926D012A25D0491EB2
:1016B00002D5059AD26C51181B9A4900926C039B73
:1016C000545AE31813521B9AD26C535A1299591850
:1016D00011521B99896C01E020E023E00A5E029917
:1016E0008A4230DC0498002804D005980499C06D23
:1016F000FFF7CBF802981DB0F0BD1B9A0399926CCE
:1017000011521B9A1299D26CE2E70DE0054697E65A
:101710000A99615E0291ECE61E20F2E60A99615E8A
:1017200002915BE71E2061E76800205E029076E789
:10173000215E0291A7E71B98C06F400001190220AB
:10174000085E0290A8E71B99896C085E0290C9E7C1
:10175000589EFFFFF3B58FB00F98846DFF300130B6
:10176000C06F002C4ED002900F980026806E09901A
:101770000F98C06D0A900F98006E0596079000288C
:1017800036DD0F9880300C900A980A9D406800273B
:101790000835069000281FDD70000390215E1F4869
:1017A000814211DD002000900C9829460368109AB0
:1017B0000F98FFF7C9FB0399615A0818039900B203
:1017C0006052029988421FDC2868761C8000451907
:1017D00006987F1C8742DFDB0A98006881000A9820
:1017E00008180A9005980799401C05908842CBDBA1
:1017F0007100625A0998101800B26052029988422A
:1018000006DC084611B0F0BD0398205E0290DBE7CD
:101810007000205E029011B0F0BD0000589EFFFFE6
:10182000F0B5836B002294469E469A5E2A4B9A42FC
:1018300002DD521A74462280C46F0125621E002AFE
:1018400019DD724605468035921C641E0026965F9F
:101850009E4201DD761A168000266F69965F7F42F0
:10186000BE4201DA138002E06646761CB446921C42
:10187000641EEBD1C56FC26F521B941C002C0DDD92
:101880006D0074462C19921C0025655F9D4201DD98
:101890006D1A2580521EA41C002AF5D1FF22C532E4
:1018A0001258456C5200AC5E9C4201DD641AAC5289
:1018B000856CAC5E9C4201DD641AAC52C56CAC5EBA
:1018C0009C4201DD631AAB52FF300130C26F511AE6
:1018D000C1676046F0BD0000589EFFFFF0B4826D06
:1018E000002A13D0436E0024002B16DD0C4D8030EF
:1018F0000026965FAE4201DD761A16800026476903
:10190000965F7F42BE4204DA158003E0F0BC0020FF
:101910007047641C921C5B1EEAD12046F0BC7047E5
:10192000589EFFFFF0B5044683B0806B0190942071
:101930000559681041002046FF3081300090C06D8D
:10194000891CFEF763FF010049D06B105A1C002A66
:1019500010DD0125DB07ED075D19881E0023002D32
:1019600001D04380801C551004D043808380001D2B
:101970006D1EFAD1E06F224D431E002B10DD019B3E
:10198000401E9B1C00269E5FAE4205DD7642770816
:101990007F00CE5B761CCE53401E9B1C0028F1D1ED
:1019A00000231846002A09DD009E366D4700CF5FF0
:1019B000FB189E4202DB401C8242F7DC4300E26FD0
:1019C00000269B1E501E002810DD01985B42801CE3
:1019D000521E0024045F9C4204DA058003E00020CC
:1019E00003B0F0BD761C801C521EF2D1002903D03A
:1019F0000098C06DFEF749FF304603B0F0BD00000F
:101A0000589EFFFFF1B586B00698FF308130416ED9
:101A1000002950DB806E009006284CDB06980025DC
:101A2000806B0490002003900698FF300130846999
:101A3000012001900698806F00283CDD00984F42FD
:101A400046000398810006980818FF300130006CAA
:101A5000A84208DC0398401C8100039006980818EF
:101A6000FF3001308469019861680818009902907C
:101A7000411A0198081A401E0099FEF7EDFB002854
:101A80000EDD009A019989184A00049951180B4AF1
:101A90000023CB5EBB4200DA0A807118401EF7D1EA
:101AA00002986D1C401C0190206880000419069863
:101AB000806FA842C5DC07B0F0BD0000589EFFFF54
:101AC000F0B5044683B0806D942100900D59002834
:101AD0004DD0681041002046FF3081300190C06D2C
:101AE000891CFEF793FE010040D06B10581C0028A3
:101AF00010DD0125DB07ED075D198A1E0023002D8F
:101B000001D05380921C451004D053809380121D45
:101B10006D1EFAD1636E1D4D002B0DDD009A00265F
:101B2000965FAE4205DD764277087F00CE5B761C7D
:101B3000CE53921C5B1EF2D100231A46002807DD0B
:101B400056008E5FF318322B02DC521C9042F7DCF9
:101B50005300626E00269B1E002A0EDD00985B4239
:101B60000024045F9C4204DA058003E0002003B0F7
:101B7000F0BD761C801C521EF2D1002903D00198C2
:101B8000C06DFEF782FE304603B0F0BD589EFFFFE9
:101B9000F0B50246846B85B0C06B0490FF20C53061
:101BA000805803900021615E0020C043019100290C
:101BB00053D0864600208446D01DF93002908569B6
:101BC000966F012300200096002E27DD6646B600A2
:101BD000B618FF360136366C864207DC65466D1C4A
:101BE000AC46AD00AD18FF350135AD696E68F31830
:101BF0005F00E65F8E4201DD314686463F19403F79
:101C00003E26BE5F8E4201DD314686462E68401C70
:101C1000B6007519009E5B1C8642D7DCD06F43006E
:101C20001D190220285E884201DD0146B646E05EAD
:101C3000884201DD0146B646019888420CDA0498D4
:101C400018180223C35E0298406F834204DB218090
:101C50000398526C40001152704605B0F0BD000070
:101C6000F0B50446FF3095B0913004900590A06B1C
:101C700001218446E06B0890E01DF9300B908269E9
:101C8000881E01900023A56FFD4E18460795002D74
:101C900026DD9D002D19FF3501352D6C854205DCB3
:101CA0005B1C9A001219FF3201329269556869185B
:101CB0004F006546ED5FB5420ADD2E46089D019056
:101CC000ED5F029565467D19403D3E27EF5F0D971C
:101CD0001568401CAD00AA18079D491C8542D8DC38
:101CE0002546FF358135A86D01280FD10021A96552
:101CF000821EA9606A60E96004980280C280028145
:101D0000E04A42805242828041812963DC48864217
:101D10007ED0686C0299411A491E0C9102D5EA6C7A
:101D200051180C910199226C49000E91515E0C9A48
:101D3000521A0692029A8A18E96C8A4201DA0698C7
:101D400000E00690002805DAA86C002801D006986B
:101D500008180690029801286ADC01988446E06E13
:101D60000890A16F614561DD089800285CDBA06BDD
:101D700012900B980121002280690A916346114656
:101D8000002B19DB97003F19FF3701373F6C8F425B
:101D900005DC521C90000019FF300130806961455C
:101DA0000AD047680A9B491CFF187F1C0A970768DE
:101DB000BF0038186145E5DD4068079008980028A5
:101DC0000AD107980C2804DD0C21801FFEF744FA85
:101DD00000E00020001D08900799401C814223DB91
:101DE0000020C04311904810A54F844603287DDB96
:101DF000002913DD0A98079A41001298091800205B
:101E0000604507DB0023CB5EBB4203DD1F4600E0DD
:101E1000D7E01190401C891C521EF1D108990798F7
:101E2000411A1198814201DC012000E00020E860A5
:101E30000B98016F0298814274DA002084460B9857
:101E4000A66F8169A36B0120002E20DD00220B9676
:101E50006646B6003619FF360136366C964207DC08
:101E60006146491C8C4689000919FF310131896995
:101E7000521C4E683018824E4700DE530E68401CDC
:101E8000B60071180B9E761E0B96002EE0D1236CC7
:101E90000E990C9A595E089106985200A36C09920B
:101EA00047009A5ED85F101A0A225043FEF7D4F911
:101EB000696D0A2251434618E06C099A0899825EBE
:101EC000C05F101A0A225043FEF7C6F9A96B301AF8
:101ED000884276DB00210498C9430180C1800181DA
:101EE000684A428052428280002200E066E14281DC
:101EF000059A019810800598069AC280059A0C9858
:101F0000108105984181E868002802D1C11E05981A
:101F10004181686B00287DD0204601F03DFD28639B
:101F200041E1FFE70B98C16E0E98095E0298411AD5
:101F30000B98406F814206DA0020C0436860092098
:101F4000C04315B0F0BD69680198814203D1A8680B
:101F5000401CA8600FE068600120A8600021049880
:101F6000C9430180C1800181464941804942818045
:101F70000021418129630B98A968806F814220DB91
:101F800005990198088005980699C18005990C98D3
:101F90000881686B002803D0204601F0FDFC28630F
:101FA000E86800280DD00698616C4700C85F07906C
:101FB0004042322806DD3221FEF74EF9192148430E
:101FC00001E085E000200B99226FC96F1018081AF4
:101FD000B0427DDCA06D002805D0616E4900891EED
:101FE000405EB04274DC226C0E990C98515E0291F6
:101FF0004000A26C0890105ED25F801A0A22504303
:10200000FEF72AF9696D0A22514340180390216DA9
:102010000E9800E0C7E0095E0798081A504302993D
:10202000FEF71AF90646E26C08980299105ED25F34
:10203000801A0A225043FEF70FF902900B98816E26
:102040000E98085E81190398421A0298091A059899
:1020500042800598818020468030836A93423BDA33
:10206000074E0D98B04233D107940B9823468169EF
:102070009F6FA46B00220120002F24DD002303E0CA
:10208000589EFFFF983A0000BC46079E9700BE1975
:10209000FF360136366C9E4206DC521C07999600CC
:1020A0007118FF31013189695B1C4E683018454E4B
:1020B0004700E6530E68401CB60071186646761E4F
:1020C000B446002EE1D102990398401AA96B00E0B2
:1020D0006DE0884267DA6AE0C36A8B4234DD394ECC
:1020E0000D98B04263D106940B98234681699F6F87
:1020F000A46B00220120002F1FDD0023BC46069E9A
:102100009700BE19FF360136366C9E4206DC521C23
:10211000069996007118FF31013189695B1C4E6880
:102120003018284E4700E6530E68401CB600711860
:102130006646761EB446002EE1D102990398401AF5
:10214000A96B88422FDA32E0036B934233DA406B9B
:10215000884230DD1B4F0D98B84228D10B98A36FF1
:1021600081690022A66B0120A446002B1BDD0025FF
:1021700094006444FF340134246C6746AC4205DCAF
:10218000521C9400E119FF31013189690D4F4C68EF
:102190005B1E2018440037530C68401CA4006118D3
:1021A0006D1C002BE4D10A20C04315B0F0BD0920FE
:1021B000C04315B0F0BD019815B0F0BD03208446B2
:1021C00016E60000589EFFFFF8B50D0006467DD0CC
:1021D000002E7BD04C21FEF719FB040076D04C2258
:1021E000002101F056FD082271492846266001F0C1
:1021F00080FD00280BD0216B002902D02068FEF75B
:1022000044FB21462068FEF740FB0020F8BDA8688B
:10221000E0620090EF68E763286960606A69A26025
:10222000A969E160EB6908352361002803DD012617
:10223000401E864000E000266661002A03DD012082
:10224000521E904000E00020A061002903DD012023
:10225000491E884000E00020E061002B03DD0120E2
:102260005B1E984000E00020206269682A688800B0
:1022700018309646401900680122226442006064CA
:1022800082184843400010188B1D0022C018944645
:10229000401C7246002A1EDD83005B191A68236CFD
:1022A000401C9B182364002A0EDD83005B191B6809
:1022B000666CF61866645E009E194B435B00F3186B
:1022C0001818401C521EF0D1624600E029E0521C52
:1022D00094467245E0DB2846183060620098216C15
:1022E000C00089000E1831462068FEF78FFA20637F
:1022F000E16A8900421851186263A164002805D080
:10230000226C92008A18121AB2420CDD002C08D0FE
:10231000011E02D02068FEF7B8FA21462068FEF7B9
:10232000B4FA0020F8BDBA00183252191268B81D6C
:10233000086001212164134651007B4351185B0062
:10234000C918081800218C466264E16A401C002903
:1023500029DD810049196246666B09689200236C89
:10236000B350236B9850401C002916DD8200266C68
:102370005219A36C1268B6009851164653007E435A
:10238000D31876009B191818636C401C9A18626465
:10239000226C521C2264491EE8D16146491CE26A43
:1023A0008C466245D5DC8000A562A0632046F8BD5E
:1023B000C88A000010B504000BD0216B002902D0A0
:1023C0002068FEF762FA21462068FEF75EFA0020D8
:1023D00010BD002010BD000010B400281FD0134A0B
:1023E0004A431314024680329469641A9462D46991
:1023F000E418D462146A641A1463546AE3185363C9
:10240000322202670A22D14206DA0A31494389118F
:10241000322908DC3231016710BC002070470020EF
:1024200010BCC04370473221F4E70000555500004E
:10243000002800D0C06A7047002800D0C06B7047E9
:10244000F0B48C46051E2FD0002A13DD7F206E6A63
:102450000B461746C04331781C680C41361D1C6082
:102460007F2C00DD7F241C60844200DC044610C306
:102470007F1EF0D10020002A16DD6046001FD10724
:1024800004D02B79416899404160001D51100AD059
:102490002C794368A34043602C798368A340836010
:1024A0000830491EF4D11046F0BC7047FFB59AB011
:1024B0000F9000287ED0826C89005158806A890074
:1024C000401802680892574903910021239AC94392
:1024D00011600F9A0F999368126949689B1A089ABC
:1024E000D2001018089A001D119092001018019047
:1024F0000020089A0790002A7EDD1D980122C0075F
:10250000D207801813901D98401E109080005B1C0D
:10251000049312901D9880000690019A80180290F2
:10252000109A0020002A44DD029A019B1C9C139DF6
:10253000121F1B1F241F002D0AD060685D68401BFE
:1025400040435568C8406843C840121D1B1D241DE8
:1025500065680A955D68AE46556818950025AC46D5
:10256000109D6D1024D0A7680C979F680B979768F3
:1025700019970A9F7646BE1B7643189FCE407E432E
:10258000CE403018E6680A96DE68D768B6461897D7
:102590000C9F0B9EBF1B7F43199ECF407743CF40BC
:1025A0006646BE19083208330834B4466D1EDAD1C7
:1025B000604400E02BE01D9A012A0CD4129B1C9A67
:1025C000D458019AD258A21A029C5243E358CA40E6
:1025D0005A43CA401018049A119BD040079A92009F
:1025E0009A588018039A904203D203902398079A2E
:1025F0000260029A069800E00CE0801801900798AB
:10260000089A401C0790904204DA069885E706482D
:102610001EB0F0BD0F98017C03981EB0C840404228
:10262000F0BD0000FFFFFF7F4039D2FFF3B595B04A
:102630000E9000287ED0C16B0191816C806A096880
:102640000024890040180490006802900146049814
:1026500006AA001D01F023F9019900290DDD169845
:10266000001FC90701D04460001D0199491004D022
:10267000446084600830491EFAD10020009001981F
:1026800000287DDD4000149002980121C007C90791
:10269000401813900298401E03900198C0000F90BC
:1026A000019800011290029841004018059001998C
:1026B00003984843400011900398800010900399BC
:1026C000002000292DDD009B059A05A9D318149A36
:1026D0009A1A9300049A9A18139B121D002B05D086
:1026E0000F9B48689A1813685843091D0F9B4D6843
:1026F000D35800249C46039B5B1011D08E68129F18
:10270000B646664675430F9EBA1896591768B44682
:1027100028187646CD687E43341908315B1EEDD10A
:102720000019029901290FD4009A05998A18119964
:10273000511800E033E08A000499109B51184A6850
:1027400006A9C9584A4310180E99169A49690918DA
:102750000E98007901410098800012588A18169945
:102760000A500098401C0146009001988142A6DB67
:10277000002813DD0E991698496A0824019A00E092
:102780000CE00B680568082B02DAE31A1D4101E032
:10279000083B9D4020C0091D521EF0D1019817B082
:1027A000F0BDF7B59EB0159000287ED0C16B012416
:1027B0000022019100290EDD2099019B091FDB07F2
:1027C00001D04A60091D019B5B1004D04A608A60F9
:1027D00008315B1EFAD1002817D0816CA2008958FD
:1027E000806A89004718149702CF06A80026139123
:1027F00084463046049100290DDD0121090582003F
:10280000BA588A4203D9082605E00027EBE7049A64
:10281000401C9042F3DB04980025401E002818DD80
:1028200004993C1FCA070121C907CA4202D0656842
:10283000F540241D00216268401009D0F24055196E
:10284000A368E268F3405918401E08340028F5D107
:102850006D180498401E03D480003858F040451984
:102860000498002831DD6446241F3F1FC0070CD0A8
:10287000002D06D078682946F0400002FDF7DEFC06
:1028800000E000206060241D3F1D0498401004906B
:102890001BD0002D0FD078682946F0400002FDF7CC
:1028A000CDFC6060B868F04000E09DE00002294681
:1028B000FDF7C4FC01E000206060A06004980834CB
:1028C000401E083704900028E3D1002000900198B2
:1028D000002873DD0199012049001D911399C0075B
:1028E000C90708181C901398401E04900198C00056
:1028F0000F9001980001179013984100401805901F
:1029000001990498484340001890049880001B9057
:102910000499002000292DDD009B059A05A9D318F4
:102920001D9A9A1A9300149A9A181C9B121D002B38
:1029300005D00F9B48689A1813685843091D0F9BD0
:102940004D68D35800249C46049B5B1011D08E68C0
:10295000179FB646664675430F9EBA189659176874
:10296000B44628187646CD687E43341908315B1E7C
:10297000EDD10019139901290DD4009A059906ABE0
:102980008A18189951188A00149951181B9A496885
:102990009A58514308181599209A496909181598A9
:1029A000007901410098800012588A1820990A5035
:1029B00000980199401C00908842A9DB01980028EA
:1029C00011DD15992098496A019A08240B68056859
:1029D000082B02DAE31A1D4101E0083B9D4020C0AC
:1029E000091D521EF2D1019821B0F0BDFFB5044679
:1029F00000208DB00190002C06D0082231492046DD
:102A000001F077F9002802D0002011B0F0BDA268D3
:102A10000692E16894468A00183208341219089127
:102A20001568012202922B466A004B43AA185B00EC
:102A3000881DD21810180027401C6246002A19DD94
:102A4000820012191268029B401C9B180293002AF4
:102A50000CDD83001B191B685E00ED189E194B43AB
:102A60005B00F3181818401C521EF2D162467F1CFE
:102A70009742E5DB019891004C300818081802993C
:102A800089000C1802F09DF940000019C01C800854
:102A90000E998000002902D00E9A089911600F99B2
:102AA000002902D00F9A069911601099002902D0CE
:102AB000109A0299116016990029A6D00D6011B0E4
:102AC000F0BD0000C88A0000FFB583B08E46044602
:102AD0000C990420421A9207920F51182268930011
:102AE0005918091D451ACE1AAD07AD0F69185918A6
:102AF000091DCB1A1B1F0093431A9B079B0F5918E4
:102B000002915C31431A9B079B0F591801915C316C
:102B1000401A8007800F4518361F501E00281CDD04
:102B200071460127301FD207FF07891EFA4204D0E1
:102B300002228A5E4260001D891C22680227CF5F44
:102B4000521E521009D00423CB5E47600627CF5F88
:102B500083600830091D521EF5D12068401E04D440
:102B600042007146895E8200B15031462046069A85
:102B700000F0F6FD31462046069A00F0D5FD3046BD
:102B8000216800F079FD3046A269216800F012FE4C
:102B9000206800218200009801F07BF8226830460E
:102BA000009900F067FC334622681846009900F04F
:102BB00069FA074601463046226900F05AFB394659
:102BC0003046626900F0D9FB3A4631462046029B06
:102BD00000F0ECF906460146019A029800F032FB3B
:102BE0002A463146A368019800F0E4FB059829685D
:102BF0000160A268002A12DD0B4B0599DE43091D16
:102C00002D1D2F681846874200DC38462860B042E8
:102C100000DC304601C501C1521E002AF1D1A06876
:102C200007B0401CF0BD0000FF7F0000002801D16C
:102C3000401E704730B40446FF3491340020205EBB
:102C4000029D002803DA022030BCC04370470029EF
:102C500002D00220205E0860002A02D00420205EFC
:102C60001060002B05D00620205E18600820205E32
:102C70005860002D02D00A20205E28600020205ECF
:102C800030BC7047F0B5044680682546864685B05E
:102C9000401CFF3581350390E86A17460E4684468E
:102CA000002B2BD0306820636063A063E063206456
:102CB0006064A0647246311D604601F0DDF8A268D0
:102CC000311D286B01F0D8F8A268311D686B01F046
:102CD000D3F8A268311DA86B01F0CEF8A268311DAF
:102CE000E86B01F0C9F8A268311D286C01F0C4F846
:102CF000A268311D686C01F0BFF839E0204634301D
:102D00000FC830340FC4A16860686160206030680B
:102D1000A060696BA86BA963296B6963614629632D
:102D2000E96BE962296CE963696C2964724668643D
:102D3000311D403C01F0A0F8A268301DE96A002A6C
:102D400014DD001F891ED30704D00223CB5E43602D
:102D5000001D891C521009D00223CB5E436004235E
:102D6000CB5E83600830091D521EF5D1E06B3060E8
:102D7000A16B206C626B401A616C891A4900401883
:102D8000226BA16C891A4A00891840181C21FDF792
:102D900063FA2749CA43884245DC904245DB3860E4
:102DA0000398401E00283CDDE86B0290286B0190E0
:102DB000286C009003986E6B6C6C401EAD6B3F1DD1
:102DC000039002980021415E801C0290019800222D
:102DD000825E801C0190891A00980022825E801C0D
:102DE00000900020305EB61C101A40000818002128
:102DF0000022615EAA5EA41C891A4A008918401844
:102E00001C21AD1CFDF728FA0949884202DCC943A0
:102E1000884200DC084601C70398401E0390002842
:102E2000CFD105B0F0BD0846B9E71046B7E70000BE
:102E3000FF7F0000FFB50746806885B03C460D4621
:102E4000401CFF340E9981340390A36C1646002970
:102E500023D002463146184601F00EF8E06C3146A8
:102E6000039A01F009F8206D3146039A01F004F845
:102E7000606D3146039A00F0FFFFA06D3146039A62
:102E800000F0FAFFE06D3146039A00F0F5FF206E86
:102E90003146039A00F0F0FF46E0216D606D6165F8
:102EA000E16CE3642165A16DA164E16DA165216E12
:102EB000E16520663146039A00F0DEFFBA68281DFE
:102EC000A16B002A14DD001F891ED30704D0022342
:102ED000CB5E4360001D891C521009D00223CB5EDB
:102EE00043600423CB5E83600830091D521EF5D178
:102EF000386B28600399A06C002952DD801E361FB4
:102F0000CA0704D00222825E801C7260361D4910FE
:102F10000AD00222825E72600422825EB260001DCC
:102F2000491E08360029F4D10398002839DDA06D28
:102F30000290E06C0190E06D0090276D266E089D78
:102F4000646D02980021415E801C0290019800226D
:102F5000825E801C0190891A00980022825E801C8B
:102F600000900020385EBF1C101A40000918002095
:102F70000022305EA25EA41C801A4200801808184D
:102F80001C21B61CFDF768F90749884202DCC943D9
:102F9000884200DC084601C50398401E03900028C3
:102FA000CFD109B0F0BD0000FF7F0000FFB50146A2
:102FB000FF3183B0E531029131494018002401907E
:102FC0006000029900900D5E41180420085E012106
:102FD000401B4310864600209C462A46002B1CDDE1
:102FE000049AAB009A186346121FDB0702D0022135
:102FF0005068121D002663465B100AD057684F4385
:1030000038189768491C4F43BE19491C08325B1E8B
:10301000F4D1614680196A18491C7346DB0700D158
:10302000491E7346EB189B1A002B1BDD9500049A72
:103030000026AA18F643121FDD0704D055684D4339
:103040002818491E121D00255B100AD057684F43EF
:103050003818976889194F437D19891908325B1E02
:10306000F4D14019019A0099515EFDF7F5F8A100DD
:10307000069A641C5050172CA2DB172007B0F0BD35
:103080001602000070B4D40FA21854100268641C19
:10309000002A00DA52421A60621E002A30DD012541
:1030A000E207ED07EA420DD04268002A00DA5242F8
:1030B0005A604D68002D00DA6D425219001D091D3D
:1030C0005A601B1D621E55101AD04268002A00DA91
:1030D00052425A604E68002E00DA764292195A60C7
:1030E0008268002A00DA52429A608E68002E00DA66
:1030F000764292199A600830083108336D1EE4D187
:10310000204670BC70470000F3B5016883B04C10D6
:103110000146FF31E53100914849641C4018019097
:10312000812C02D0002005B0F0BD454E04983146F8
:103130000968C21FF93A44D0009801807068009D68
:103140000002361D0499FDF787F800B268808128D7
:1031500000DD204668800B27AD1C706804990002D2
:10316000FDF77AF800B26880A04200DD2046688052
:10317000B068083600020499FDF76EF800B2A88026
:10318000A04200DD2046A8802D1D7F1EE5D10098BD
:10319000048600992C20085E611E884200DD601EB6
:1031A00000990A2288850098801C0446403C3E21F4
:1031B000615E0223C35E0C46491C8B4211DD194639
:1031C00010E0009A301F0C23921E04895180C168C0
:1031D00094800830121D5B1EF7D10099306E08866E
:1031E0000FE0611C418000210423415EC35E4C1C42
:1031F000A34201DD194600E0491C8180001D521EDA
:10320000D3D100991723019A091D0846002440389C
:103210003C250C5F455F641B6010E40709D0401C2F
:1032200040431080891C921C5B1EEED1172005B014
:10323000F0BD441C44431480F4E700001602000073
:10324000648A0000F7B5002417460D4600290DDDFD
:103250000098A6008059002801DC002002E0401CF4
:10326000FDF754FE641CB851AC42F1DB284603B0B4
:10327000F0BDF8B5161E05460C460ADDF01FF938FC
:1032800007D02868009000202860FF2E03DC01276B
:103290001CE00846F8BD671E18E038023146FCF70E
:1032A000DBFF411CA14203DB0020B900685008E0AD
:1032B00082005019A9584068814200DD0846B900D3
:1032C0006850FF2E01DC7F1C00E07F1EA74201DA60
:1032D000002FE2DC0120012C3ADDA21E9446611E83
:1032E0002A46783A9646FF2E17DC884230D0604551
:1032F00008DB8300EA585B195F68BA4202D15210BA
:103300005A6022E08300EA585F197B689A421CD118
:10331000BB68D21852107A6017E002280BDD8300D8
:103320005A19803AEB58D76F9F420ED1976FFB180E
:103330005B10D36709E0022807D17246D36FAA68F1
:10334000934202D152107346DA67401CA042CADB96
:10335000009828602046F8BD00280BD0FF3081304F
:10336000002901D0836C0B60002A01D0406C1060F2
:10337000002070470020C043704710B4002A16DDBB
:103380004B1E53431A12531C002A10DD0124DA0786
:10339000E40714190022002C01D04260001D5B1EBE
:1033A0005B1004D04260826008305B1EFAD110BC12
:1033B00008467047172901D000207047FFB582B03A
:1033C000029800220B2403681146001FD21885685A
:1033D000C36849190830641EF8D150180299896DE4
:1033E0000818049908600020864600900598002877
:1033F0003CDD00991E4A490001910298891800237A
:103400002E260B2504688E5F001F1A46AC462C3111
:103410000427CF5F74438568E3187D43AA18062606
:1034200065468E5F6D1EC4680830091DAC46002DD0
:10343000EED102989918826D01980D4B2C30C0186E
:103440002E23C35E5A435018FF30FF3002308112E2
:103450007046820004981018416000981730009060
:103460007046401C864605988645C2DB06B0F0BD16
:10347000D28A0000F7B594B01698C11FF93902D06E
:10348000002017B0F0BD6B4805906B480F90149A60
:103490000392159A694800920890039A1699536806
:1034A0000222825E9000039A14585460039A1350CB
:1034B000009A145853685460009A135002208446AE
:1034C00002908B1002D13AE0002833DD0298039A73
:1034D00041000898009C08180299E64689008A185D
:1034E00009190024029D0026865F2D19B54215DAC0
:1034F000B700039E1568F65916600026865FB70070
:10350000039EF5510026865F0D68B700009EF659B0
:103510000E600026865FB700009EF55175466D1E51
:10352000801C091D121D641CAE46002DDAD10298C4
:10353000604402906046400084465B10C4D1012084
:1035400007900020109007984000069000200390FC
:1035500010990720411A012088400D900F980021F2
:10356000415E0B9105980021415E00200490079870
:103570000891002854DD0698840004991698411A91
:1035800006980818401E0699FCF766FE002836DDEE
:10359000049A0799159E5118149A89008D18159A46
:1035A00086468B180499149A89008A1889192E68FE
:1035B0000C960B981F68464308980E974743F01BDC
:1035C000089F0C9E001284467E430E9F0B98474333
:1035D000F0190612176860463F1A2F600F686519C8
:1035E000BF1B1F601768E318381810600868A2181E
:1035F0008019086061187046401E8646D7D10D9923
:103600000398401803900F994000095E0B910599AB
:10361000085E089004980799401C04908842ACDB2F
:10362000069807901098401C109008288BDB16987D
:1036300017B0F0BD568D0000588E00005A8F000064
:10364000002805D0FF300130142904DD0A2203E0F0
:103650000020C04370470522891A8267416701290B
:1036600000DC01214167026F0A3A914200DD1146F8
:103670004167002070470000F0B484464D10C81F19
:10368000F9384CD127480022002D1FDD6246031F68
:10369000121FEC0707D054685E687443803424120C
:1036A0005460121D1B1D6C100FD056685F687E435E
:1036B00080363612566096689F6808337E4380369F
:1036C000361296600832641EEFD12A46531E8C1AB9
:1036D000002C24DD9200614651189A001018001D3C
:1036E000091FE20707D0001F4A6803685A43803267
:1036F00012124A60091D621011D00446803C4B68CA
:10370000E46F0838634380331B124B608B68046896
:10371000634380331B128B600831521EEDD1F0BC25
:10372000704700005C91000070B443689B005B1818
:10373000803BDD6F002A10D0002202620368002B5C
:1037400008DDF32672430C681212A21A04C1224645
:103750005B1EF6D1056270BC7047026AEEE700009E
:10376000F0B4002A02D000224262826242680568F8
:1037700092005218803AD26F846A9446426A92024A
:10378000002D0BDD0B461E68094FB602B21A7C43B2
:103790001219941210C332466D1EF4D16246426271
:1037A0004268920051188039C96F8162F0BC70473D
:1037B000E6030000002A13D0002911DD001FCB070B
:1037C00003D0436813414360001D491008D043688B
:1037D000134143608368134183600830491EF6D16A
:1037E0007047F7B50D46040008D0A06FA84201DD70
:1037F000002D07DA0B20C04303B0F0BD0020C0430A
:1038000003B0F0BDE16A0022002902DDC807C00F45
:1038100000E00020431E09D496003619FF36013619
:10382000366CAE4214DC521C9A42F5DD02469142DF
:103830000EDD90000019FF300130036CAB4207DC55
:10384000406CA84201DD521C02E0921C9142F0DC67
:10385000002A05DD90000019FF300130C06B00E048
:1038600000202E1A900000194168002902D00F6C28
:10387000002F01DC002006E0084600F01FFE0028B3
:1038800001D0B9000818B100415A0298FF34081855
:103890000134E16E6A008852002003B0F0BDF7B534
:1038A00082B09446002503990246284600290BDD84
:1038B000012109058300D3588B4201D9082503E073
:1038C000039B401C9842F5DB03980024401E00280F
:1038D00018DD03990126131FC907F607F14202D02C
:1038E0005C68EC401B1D00265F68411009D0EF406A
:1038F0003C199868DF68E8408619491E083300299A
:10390000F5D1A4190398401E03D480001058E84054
:10391000041903990020002930DD161F67463F1F58
:10392000C8070CD0002C06D070682146E840000281
:10393000FCF784FC00E00020361D78603F1D0398F2
:103940004010009019D0002C0DD070682146E8403E
:103950000002FCF773FC7860B0682146E840000282
:10396000FCF76CFC01E000207860B8600098083635
:10397000401E083700900028E5D1039805B0F0BD3F
:10398000002801D0002902DC0020C0437047FF302E
:103990008130016500207047F1B594B0149C00257A
:1039A000A06B0B90E06B0790E01DF9300A9080301F
:1039B000FF349D340990002084460A9801238669CB
:1039C000981E0C905648109014990020896F05910C
:1039D00000297DDDE907C90F129161468A0014991B
:1039E0005118FF310131096C814208DC6146491CE4
:1039F0008C468A0014995118FF3101318E690B9A57
:103A00007168CB1859000891515E109A119191423A
:103A10002BDD0021002D01DD129A00E000229646E8
:103A2000012A08D47246521E8F00E75F874213D0E6
:103A3000491C9142F8DD7146AE450DDA8A00A75E59
:103A4000874209D012190427D75F874201D1491C48
:103A500002E0891CA942F1DBA94206DB1199109111
:103A60000C90079A0899515E04913168401C8900B6
:103A70008E1905995B1C8142AFDC29491098884258
:103A800048D00998436C04981A1A521E02D5099816
:103A9000C06C82181498049E016C0C984000089029
:103AA000095E0391501A8E190999C96C8E4200DB88
:103AB0001846002804DA099B9B6C002B2DD00818AF
:103AC000149B52009B6C470003999A5ED85F00E0FC
:103AD00020E0101A0A225043FCF7BEFB09990A2283
:103AE000496D514346181498016D0898095E149861
:103AF000406CC05F081A50430399FCF7ADFB0246C7
:103B0000A9000C986052B01A09196D1C4880052D47
:103B100000DA50E7284615B0F0BD0020D0E70000DD
:103B2000589EFFFFF1B584B00020009004988030CB
:103B30000190806D00287DDD0098410004980C18EC
:103B40001021615E481C76D01420205E3C2875DD73
:103B500004980068002849DD0026C507ED0F11D044
:103B6000009818225043049A78238218164680360B
:103B70002820305ED35E4843C018491CFCF76CFB1C
:103B80003085012604980068A8422FDD009818218E
:103B90004843049947187000381802468032029250
:103BA0002823D35E1021615E78224B43825E491C3C
:103BB0009818FCF751FB029A761C10857000381893
:103BC0000246803202922823D35E1021615E782261
:103BD0004B43825E491C9818FCF73EFB029AAD1CD1
:103BE00010850498761C0068A842D4DC0499102043
:103BF000205E4968884201DA401C208204980168EE
:103C0000002915DD009A30235A43049B1826D51845
:103C1000009B00207343049E02469B1946009E1998
:103C2000403632878600AE19401CB261491EF5D17C
:103C3000002002E00BE00CE000E0A0820098401CB5
:103C400000900198816D0098814200DD74E705B015
:103C5000F0BD04980268002A17DD0098302358430D
:103C6000049B1825C718009B00216B43049D084640
:103C70005E194B00F518A82358538B004035FB18EC
:103C80002887491C9861521EF3D10020A08220820F
:103C9000D4E710B400280FD0002A0DDDD407401E51
:103CA000CBB2002C01D04370401C511004D04370A3
:103CB0008370801C491EFAD110BC7047002817D0B1
:103CC000002915D0884213D0002A11DD401E491E5C
:103CD000D30703D04B784370401C491C521007D0C7
:103CE0004B7843708B788370801C891C521EF7D1EF
:103CF0007047002803D0002906D101207047002911
:103D000002D00020C0437047F0B40446084311D0ED
:103D1000002A02DDD007C00F00E000200023451E6E
:103D200010D4E65CCF5CBE4209D0F0B2F9B2884252
:103D300002D9581CF0BC7047F0BCD84370475B1CDC
:103D4000AB42EEDD904223DA235C0D5CAB4209D03E
:103D5000DAB2E9B28A4202D9F0BC401C7047F0BC2A
:103D6000C043704723180D185B786D78AB420CD0B8
:103D700022180918527849788A4202D9F0BC801C6E
:103D80007047F0BC801C40427047801C9042DBDBD7
:103D9000F0BC002070470000F8B50D46040062D06A
:103DA000002D60D02168E869C96981425BD1A16DAD
:103DB000002904D0FF20DD300059FCF766FD00200B
:103DC00020666066A87D00064DD52846296C4030E7
:103DD000002948DB8021095982688A4243D1656500
:103DE000416802688C4691000C30081808180123BD
:103DF0000026E065002A0CDD696847685B1CFB183B
:103E00000768BF003818471B8F422CDC761C96428F
:103E1000F3DB6046634526D1801A22664100606666
:103E2000FF20DD300059FCF7F1FC0300A3651DD035
:103E3000606E002815DD0021C0070E4AC00F01D0BA
:103E40001A800121636E83420BDD4B00A56D491C76
:103E5000EA52A36D4D005A53636E801C491C834285
:103E6000F3DC0020F8BD0020C043F8BD0120C043B2
:103E7000F8BD0000589EFFFF10B40023002A12DD99
:103E8000801E091FD30703D08B884380801C091D27
:103E9000531007D08C8844800C898480001D083121
:103EA0005B1EF7D1134610BC18467047002808D097
:103EB000816C4C3089000818081881691830890015
:103EC00008187047011E05D00246036C4432002BCF
:103ED00001DC0020704730B516240C5F0832A506BF
:103EE0000AD524070AD098008218801814228A5E06
:103EF000012109038A4200DB002030BDFFF7D6FF15
:103F0000016889000818016842688900081801687A
:103F1000002901D09142F0D1001D0029EDDDCA0732
:103F200002D00268920010184910E6D00268920090
:103F30001018026892001018491EF7D130BDFFB565
:103F400095B0002011901698154600280DD0002D30
:103F50000BD01898002808DD2868002805D01E9886
:103F6000002802DD1F98002804DC00202099C043AF
:103F7000086096E200263446A700E8590028F4D0ED
:103F8000002C7ED000221146FCF769FF11994018E1
:103F90001190E859641C006C861918988442EBDB78
:103FA00011980028E1DD159800286BD01198B40015
:103FB0002118FF31ED311598FCF728FC03900028FB
:103FC00060D0FF22ED320021FFF763FE03981599C0
:103FD000FF30813004900590C16503987100C71DC2
:103FE000FF30F937ED3009974118F9662246B86677
:103FF0000021FFF74EFEB86E01190598016616996B
:10400000189A00201C31002A09DD0A6881006958CD
:10401000C9698A4203D11899401C8842F6DB189975
:1040200088427EDB03981699016003980A6C8267C8
:1040300003984A6CC26703988A6C803002604C31E6
:10404000416092005118816051180A68C2604A6844
:1040500002618A6882618262CA68C261C2620A6958
:10406000026202634A6942621831426381630A68EC
:1040700092005118C1630A689200521802641168D4
:1040800001E0A9E0B1E08900891853680A68002AB4
:1040900001D09A4207D1091D002A04DD4164511064
:1040A00001D0491EFDD11F994161296816988142AE
:1040B0007DD0039818990295059000240B91846790
:1040C0000598C4670B992046002920DD05998031A9
:1040D000029A8300D258136C4032002B17DB95688C
:1040E0000E68B54213D1059D401CAD6FED18059BC0
:1040F0009D67059B5268DB6F9B18059AD367059AED
:10410000059BD26A521CDA620B9A9042E0DB059959
:10411000CA6F0B99511A059A491CD1670B998842AD
:1041200000E0AAE07DDB0598806F002879DD0A2990
:1041300077DC002084460A90002973DD059BFF335D
:1041400001330A9802998000059A10900958821844
:104150000D925160029909580E91086C4C310091F2
:1041600000280CDD009A00240546614609191688CE
:1041700049009F6E121D641C7E526D1EF5D1810098
:10418000009A06918918009100280CDD0099002200
:1041900004466746BF180D887F00DE6E091D521C5D
:1041A000F553641EF5D1009A0699891800E069E07C
:1041B0000E9A1424145F0122120394421DDB0E9AFE
:1041C000029D109C52682D590C68002C12DC4C1B6F
:1041D00094420FDA091DF7E728681F9A1E99FCF729
:1041E0003EFE119940181190D3E601202099C0435A
:1041F000086056E14C1B94423BDA0E9A927D92067F
:1042000017D50D9A8032916404C9002A11DDD407B4
:1042100002D00C68A400611852100AD00C68A400E7
:1042200001E027E025E061180C68A4006118521E27
:10423000F4D10D9F0022FF370137B96100280DDD51
:104240000E9C109E6568029CA4590E68B6007118F9
:104250000E1BAE420DDC521C8242F6DB60448446EB
:1042600038640A98401C01460A900B98814200DA93
:1042700067E70A9C1898844204D000202099C04324
:104280000860FFE009984621016709980F214167FE
:1042900009980A21816700210498C9434160049A62
:1042A00000209060049A1423D060049A5063049A0A
:1042B0009363049AD063049A1064049A5064049A35
:1042C0009064039AD0660398322202670398039B96
:1042D000C26F806F101A401EC0105867052800DC9E
:1042E0000520039B3228586700DD3220039B586766
:1042F000049B1E98D864049801238365049B501086
:104300001865FF232D33984200DC1846049B18657E
:104310000498022343650498416604980C21816641
:1043200004990398096E0291119984460B91002813
:1043300076D00298002873D0002971DD02980421FC
:104340000B1A9B079B0F181852001018001D821A99
:104350006346121F9A630A1A9207920F1018624658
:10436000D26F52001018001D821A121FDA630A1A47
:104370009207920F10189A6F52001018831A624613
:1043800013640A1A9207920F10186246926F520035
:104390001018831A624613650A1A9207920F1018B2
:1043A000049A6346D26C52001018841A5C640B1A8B
:1043B0009B079B0F18181018841A63469C640B1AED
:1043C0009B079B0F18181018821A00906046002750
:1043D000C264C06A002848DDB800614643188033D3
:1043E000996C00293CD00868012400224D680028FF
:1043F00007DDA6008E59AE4203D13419521C824209
:10440000F7DB82420DDB00980421081A810700982F
:10441000890F0818001D0090001F186705601FE035
:104420002CE0009A0424A21A9407009AA40FA21860
:10443000C41CA408A400A2180092121B1A6701222F
:1044400000280DDD0024A50703D1A6081D6FB600C6
:10445000AA5195004D59401EAA18641C0028F2D19B
:104460006046C06A7F1CB842B6DC02990098411AC7
:104470000B98814218DD0020614688630120209955
:10448000C0430860039C002C0BD0A16D002903D011
:104490000498C06DFCF7F9F904982146C06DFCF74B
:1044A000F4F9002019B0F0BD2099002008600398AD
:1044B00019B0F0BD002800D0006C704710B50300A3
:1044C00004D018461A6C4430002A01DC002010BDCC
:1044D000997D08300907FAD11846FFF7E7FC016813
:1044E00089000818016844688900081801680029D3
:1044F00001D0A14211D1001D00290EDDCC0702D050
:104500000468A4002018491007D00468A4002018EB
:104510000468A4002018491EF7D1997D890611D599
:1045200002C800290EDDCB0702D003689B001818D3
:10453000491007D003689B00181803689B001818DF
:10454000491EF7D1002AC2DDD10702D001688900D7
:1045500008185110BBD0026892001018026892002F
:104560001018491EF7D110BDFFB581B015460F4692
:10457000060021D0F421FCF749F904001CD0F422F4
:104580000021FFF786FB204680308666391F002613
:10459000092914D30546C06EFDF70CFFEE662E66A2
:1045A000A682701E20820120A8652146A86EFCF715
:1045B0006CF9002005B0F0BD002005B0F0BD27600B
:1045C000072D00DB07250027FF43A76065600499DE
:1045D000E160B91E05464166C06EFDF7EBFEEE6672
:1045E0002E66A68227820121A965204605B0F0BD6E
:1045F00070B5050012D02C468034E06EFDF7DAFE6F
:104600000020E0662066A882401E28820120A06566
:104610002946A06EFCF739F9002070BD0420C04384
:1046200070BDF0B5ADB00F46029000287DD0002FD0
:104630007CD00446803406460194E06EFDF7BAFE55
:104640000025E5662566B582681E30820120A065DA
:10465000019C3946A06EFDF7B7FD019C0028E0667D
:1046600076D0FDF7E5FE03900198C06EFDF7E4FEFD
:1046700001990490C86503980199401C88650198C8
:1046800006A9C06EFDF7D2FF009506AA0021049B83
:10469000029800F015FB03980024002851DD0198D2
:1046A00006AAC06E2146FEF77CF8601C0021029F1E
:1046B0008446049A06A88E46002F3ED0396891425F
:1046C0003BDC6246002A38DB019A936D634534DD9A
:1046D0007A68002A31DB00290EDD654618230022A6
:1046E0005D43EB19560005889E198036001D491E52
:1046F000521C35850029F5D13968002913DD624641
:1047000030235A430020D519664618235E430246DB
:10471000F31946009E19403632878600AE19401CB8
:10472000B261491EF5D1002101E00DE010E06046C4
:104730004000C0198182714601820398641C844242
:10474000ADDB00202DB0F0BD0420C0432DB0F0BD86
:104750002820C0432DB0F0BD002803D08030416632
:10476000002070470420C0437047002802D08030EA
:10477000006E70470420C0437047FFB591B00A90A7
:1047800000283AD0026828201399C0438A4236DCB8
:104790000A9C8034E16D002902DD139A91422ED1EA
:1047A000E06E0025002832D0129F139E9821A06E43
:1047B000FCF72CF8019000282AD0B2003946FFF708
:1047C0007DFA3246E06E0199FDF73AFE06AF00979A
:1047D0003346E06E0021019AFDF768FE054600971A
:1047E0003346E06E0121019AFDF760FE0146606EDE
:1047F0004019884205DC012504E00420C04315B0BF
:10480000F0BD0025A06E0199FCF73FF800E00025FF
:1048100025660A980B9012980F900B9807954068A0
:10482000149900286FDB002906D10B98690009183C
:104830001020085E401C02D10B98FFF773F90B9C07
:104840000798089022680F98002A52DD089B3025AF
:1048500000216B431F198B00FB1840C89D69491C40
:10486000AD199D61521EF6D12068002841DD00255A
:10487000C607F60F0FD00899B86949000A19142124
:10488000515E491CFBF7E8FC0899182251430919AD
:104890004031088701252068B0422ADD0898182198
:1048A0004843001902900898400000190990099A9D
:1048B0001421A800515E38188069491CFBF7CCFC14
:1048C0006A0002996D1C891840310887099A1421E1
:1048D000A800515E38188069491CFBF7BDFC02999D
:1048E0006A0089184031088720686D1CB61CB042E8
:1048F000DDDC0898400001191420085EFF2803DA67
:10490000401C88822FE0B6E0216800292BDD0020C2
:10491000C907C90F0AD0089830225043001982698C
:1049200013029A1A803212128261012022688A428E
:1049300019DD089A30235A43131982009A18956991
:10494000401C2E02751B80352D12956182009A182D
:104950009669401C3502AD1B80352D129561226889
:10496000891C8A42E9DC0B98302180301090806EDF
:10497000FBF74CFF039000287DD00B98806800283F
:1049800001DA079800E0079041000B9809181420FD
:10499000085E642800DB642001900B9840680028C2
:1049A00004D01020085E012800DA01201E214843AF
:1049B000643000900B980068411E002956DD07996D
:1049C000182251430B9A039E8C1825460121A635C7
:1049D000C007C9077634361FC84211D0009A019922
:1049E0000220285E511A48430221615E019AA41CEC
:1049F00051434018AD1C0099FBF72EFC7060361D2A
:104A00000220285E04900220205E06900B98006829
:104A1000401E47102AD001990098401A02900420A5
:104A2000285E09900420205E059004990298019A5E
:104A300048430699241D514340182D1D0099FBF74A
:104A40000BFC70600220285E04900220205E06901D
:104A500002990998019A4143059850430818009912
:104A6000FBF7FAFBB06008367F1ED8D10B980468BC
:104A7000641E18D400E03BE00798182148430B99C6
:104A8000A822411860000818115E019B009AD21AF2
:104A900051437822825E5A4388180099FBF7DCFB69
:104AA0000399A20088500B980268002A1BDD0F981A
:104AB0000399001F091FD20705D043684A689A1A54
:104AC0004260001D091D0B9A126852100BD04368FA
:104AD0004C681B1B436083688C6808311B1B836018
:104AE0000830521EF3D110980399806EFBF7CDFE6B
:104AF0000A98C06800287ED00A9912980A68002196
:104B0000139F002A15DD011F031FD40704D05C6822
:104B1000E4114C60091D1B1D541009D05D68ED1196
:104B20004D609D680833ED118D600831641EF5D12C
:104B30001146B9421ADA002A18DD8B001C181B181E
:104B40001B1F241FD50704D065686D115D601B1DF8
:104B5000241D551009D0666876115E60A668083479
:104B600076119E6008336D1EF5D18918B94226DA98
:104B7000951E002D19DD8B001C181B181B1F241FF0
:104B8000D60704D0666836115E601B1D241D6D10AB
:104B900009D0666836115E60A668083436119E60DA
:104BA00008336D1EF5D18918891E8A008358491C67
:104BB000DC1184508A0083585B118350491C002902
:104BC00029DD7F24CA07E443001F002A09D0426878
:104BD0007F2A00DD7F224260A24200DC2246426042
:104BE000001D4A1017D043687F2B00DD7F2321462C
:104BF00043608B4200E00EE000DC234643608368A4
:104C00007F2B00DD7F2383608B4200DD19468160AE
:104C10000830521EE7D1002015B0F0BD10B50021BC
:104C200082B0F4240191002806D00022009101AB4B
:104C30001146FDF7DBFE041900F0C3F80019C01C93
:104C40008008800002B010BD002802D08030806D46
:104C500070470420C043704730B404002CD0282093
:104C6000C043002A26D025689D4223DC002921DB91
:104C7000D8231B598B421DDD0020002D1ADD182082
:104C800041430819A630121FE90704D00221415EF2
:104C9000801C5160121D216849100AD00223C35E96
:104CA00053600423C35E9360001D491E083200292F
:104CB000F4D1206830BC7047042030BCC04370473A
:104CC000F0B4040041D02820C043002A3BD025681E
:104CD0009D4238DC002936DBD8231B598B4232DD5C
:104CE000049B002B2FDB66689E422CDB08461823B2
:104CF00058438446002D0BDD002063461B194700F6
:104D00001688DF198037401C121D3E856D1EF6D1B6
:104D1000002023680246002B10DD30260D46754327
:104D20002E1965462D194700EF1940373A8787003D
:104D3000F719401CBA615B1EF5D1206849000B19B8
:104D40009A8204991982F0BC7047F0BC0420C043D9
:104D50007047F0B4002827D0024680329446926D06
:104D60000021002A1DDD00220468002C10DD302502
:104D70004D432E18182500234D432D185F00EF19C1
:104D800040373A879F00F7195B1CBA61641EF5D162
:104D90004B001B189A821A8263469B6D491C8B42FA
:104DA000E2DCF0BC00207047F0BC0420C043704738
:104DB000002801D1401F704710B5FEF7B3FE002058
:104DC00010BD1020704772B68289521A8281028902
:104DD000511889B201814288914201D30021018199
:104DE00062B6704772B68289521882814289511820
:104DF00089B241814288914201D30021418162B64A
:104E0000704700000248C168C2059143C160704705
:104E10008000084010B5044602F042F908498A684B
:104E20004B051A438A6007494A6A520852004A628F
:104E30000A6A9208920022430A6202F01BF910BD2E
:104E40000002005000000840810F8A0004495118F8
:104E50004A68C306DB0E0120984002434A6070474F
:104E60000002005010B5044602F01AF903490A681E
:104E700022430A6002F0FEF810BD0000000200505C
:104E800010B502F0B3F90148006810BD1800002009
:104E900070B515460E46044602F002F90A4B196930
:104EA000472291432143314319611969C908C90057
:104EB000214319619969090909012943996102F09E
:104EC000D9F802F093F970BD0002005070B5840A61
:104ED00023061B0E0CD003039B0F0F4D9B005B1989
:104EE0001D688605E4B2F60EB440A54315431D6067
:104EF000420E52070ED08200074B920F9200083BE1
:104F0000D21813680401640FC001C00E8440A3438B
:104F10000B43136070BD00001802005010B5040070
:104F20000BD06069002808D000F070FEA062002855
:104F30000DDBE06A002802D007E00D4810BD216BB0
:104F4000891C2163606900F019FF002010BD014633
:104F5000153103D0C01C08D0064810BD002160697F
:104F600000F03EFFA062044810BD044810BD0000E0
:104F70002FF8FFFF78ECFFFF1CF8FFFF27F8FFFF7B
:104F8000FFB58FB00F9816460C4600284AD0002C6B
:104F900048D0002E46DD2068002843D00EAB0DAA75
:104FA0000CA90BA802AD0FC507A906A80191009096
:104FB0000AAB09AA08A90F9800F0B5FC01001D482A
:104FC00031D16421F5070023ED0F0291691E07D44A
:104FD0009A00A258928AD20414D45B1C8B42F7DD4B
:104FE000B5420EDAAA00A1582B46898AC90409D411
:104FF0006B1C11194968898AC90403D4AD1CB542D8
:10500000F0DB2B46711E8B420DDB1999FF202D30F2
:105010000191009032462146129B0F9801F0B8F999
:10502000002802DC044813B0F0BD029913B0081840
:10503000F0BD00002BF8FFFF2EF8FFFF07B582B090
:105040000021009113460191012203A9FFF798FF67
:1050500005B000BD10B5040009D0A169606900F079
:10506000FCFEE169606900F06FFFA06A10BD0148B5
:1050700010BD00002FF8FFFFFFB591B00024052000
:10508000000709941A9F00681546000C7449000433
:1050900088421ED11198002828D01298002825D0C7
:1050A000002D23DD0068002820D010AB0FAA0EA928
:1050B0000DA802AC0FC407A908A8019100900CAB81
:1050C0000BAA0AA9119800F02EFC002803D065480D
:1050D00015E0654813E00021009101972A46149BD2
:1050E00012991198FFF74CFF061E01DC5F4806E09D
:1050F0001B98002802D01C98B04202DA5C48099044
:105100008BE0012DE3DBE9070020C90F129A4B1E4B
:1051100007D484001459A48AE40414D4401C98428F
:10512000F7DDA9420EDA8B00D4580846A48AE404BD
:1051300009D4481C9B185B689B8ADB0403D4891C38
:10514000A942F0DB0846691E8842C0DB64220021C8
:105150001B98FEF79EFD304664381B9C0390214649
:10516000FF2064312D3009AA02910090049201972A
:105170002A46149B1299119800F01AFF60610028CA
:105180003CD01D99002916D01E99002913DD00215D
:1051900000F063FE1E99074688420CDC1D98A06152
:1051A0000021606900F0D0FEC1191E98814202DC26
:1051B0001D98C019E061A169606900F086FEE1698F
:1051C000606900F0DFFE3C21606900F0E6FD04212B
:1051D000606900F018FE12986560206008982062EF
:1051E000079860622348A0620520000700681C49F8
:1051F000000C0004884218D1012017E01E480990D5
:10520000002C0AD0A169606900F027FEE16960699D
:1052100000F09AFE606900F0CFFD1F98002801D0D1
:1052200009990160002015B0F0BD00201421216310
:10523000E062002802D1606900F0A0FD1B9880198F
:10524000E0631C98801B2064119860641498A0642B
:105250001F98002801D009990160204615B0F0BDC3
:105260000000071D2BF8FFFF68F7FFFF2EF8FFFF78
:105270002DF8FFFF27F8FFFF78ECFFFF7FB586B022
:105280000EA972C90291059600210193009113465F
:1052900004950394012207A9FFF7EEFE0AB070BD42
:1052A00010B5040008D06069002805D000F0C3FDE7
:1052B000002803D0044810BD044810BD0448A06273
:1052C00060650020A06510BD78ECFFFF2FF8FFFFA0
:1052D00027F8FFFF7047000070B5054601F086FF14
:1052E0000A4829460468A009FAF7A8FF00280AD04E
:1052F000FF2800D9FF20064908610869810120467E
:10530000FAF79CFF70BD0120F5E7000018000020AF
:10531000000007400448016A082211400162034965
:1053200010200860704700004040005080E200E01C
:10533000F0B5002301273C469C400C4208D005688C
:105340005C000326A640B5431646A64035430560DB
:105350005B1C102BEFD3F0BD70B5FF211646054640
:105360001531FAF769FF2C464034207C02210843AE
:10537000FF35207401352E7170BD0000FEB5064664
:1053800004464034207CF51D8007F93500282EDACC
:105390000020FEBD304600F057F9002809D0207CDF
:1053A000022108432074687901F022FB0020208448
:1053B000EEE7618B706D4900401801902879104A22
:1053C0000001811889680091135800213046019A24
:1053D00000F045F987B2304639465030FFF702FDFC
:1053E000EB68002B03D0286939B2019A98471C203A
:1053F000205EE18B4018618A8842CBDD0120FEBD32
:10540000F4770000F7B5C61D0546F9363079184A1D
:10541000000113580A4682B00021284600F0C4F863
:105420000004000C1CD0502100902A466818082364
:105430006432019001F0F6FA2C464034207CFD21C4
:1054400008402074082767832846FFF797FF002845
:1054500008D0278304987071019901F043FA012064
:1054600005B0F0BD207C0221084320740020F7E73E
:10547000F47700007CB50446FF3001301646007911
:10548000074A000110581D460A466B463146FBF795
:1054900033F92A4620460099FFF7B4FF7CBD00008F
:1054A000F4770000014610B540310A7C02231A430C
:1054B000FF300A740130407901F09AFA10BD10B53E
:1054C0000446408B202809D1E36A202221696069C3
:1054D00098472069203020610020608310BD0000C3
:1054E000F7B50646174604462036A079618BC007FB
:1054F0006069405C4CD04206550F000601D56842F9
:1055000045B2491C61832046FFF7D9FF307A022259
:10551000000941002248A25E415A707A694303079C
:105520001F4D1B0F2035EB5600095A430423E35E41
:1055300028564343D018801008181A49884202DCC4
:10554000C943884200DA08463968019A4B00491C71
:105550003960D052A179491CC9B2A1716288A28078
:105560006080E079002803D0227A101A88420ED099
:10557000207A8142B9D3217A608BC907C90F4018BC
:1055800060832046FFF79BFF0020A071E071FEBD05
:1055900045076D0F0007B9D5684245B2B6E7000070
:1055A00020790000FF7F0000F8B51E001546044674
:1055B0000DD0002C0BD03021FAF73EFE0C222046F5
:1055C00029461C30E662B047A08B072801D0002096
:1055D000F8BD20463030606128460C30206101461D
:1055E000E06020226069B0472069203020610020FF
:1055F00060830820607213480668592316218822A8
:1056000002E00360016002600768012FF9D10768BA
:10561000012F13D1002707600768002F0ED1012E3C
:1056200003D005E00360016002600668012EF9D135
:10563000052000070068000E1D2800D02561E08BC2
:10564000F8BD000000010050C2680169006A891AB3
:10565000491C814201D90120704700207047FFB5E5
:1056600081B000270A9E0446009770E02588002D2F
:1056700010D0801A80B2854200D3054603985200AC
:1056800069001018FAF7D6FD00984019009020889C
:10569000401B2080617A009A91425CD0E07900281A
:1056A00004D0891A88424DD9401A4AE0608B61695A
:1056B0002546095C20352972401C60832046FFF78F
:1056C000FEFE608B6169095C6972401C6083204644
:1056D000FFF7F5FE297A0807000F030001F095FF98
:1056E000103D28282828282828272523210C3D126A
:1056F000093D009805B0F0BD687A0001090908432A
:10570000208024E0618B6069002E415CA97201D089
:10571000687AB047608B401C60832046FFF7CFFE5D
:1057200015E0402004E0202002E0102000E00820E6
:105730002072607A0099401A217A884202D2A771B9
:10574000081AE0716A4620460399FFF7C9FE607A9D
:10575000009A90428AD81046CCE70020CAE70000A1
:10576000F0B50146194885B005C800901848019267
:10577000006802246E46174F0390FAF75FFD02900F
:105780006100715AFAF75AFDC5B229460398FAF733
:1057900055FD1149C2198A4205D3641CE4B2032C99
:1057A00001D20298ECE77D214903884202D98900A1
:1057B000884200D3FEE70948C168220709090901A8
:1057C000120F1143C160856005B0F0BD0478000080
:1057D00018000020FF5FF0FFFFDF2E0000000E40EA
:1057E00070B52548FFF730FB2448FFF72DFB234811
:1057F0000C38FFF729FB224801F044FC214C606A79
:10580000400940011E306062606A202630436062B9
:10581000606A402188436062206A000900010E30FE
:1058200020621948FAF764FE1649042040390860DE
:105830000520FAF72DFE002211463002FAF732FE5B
:10584000FAF72EFE114D2869072108432861606A86
:10585000B0436062FAF77CFF0120C043686068696A
:10586000012108436861286940004008286108490F
:10587000002000F0C7FF70BD1CFE03401E0000406A
:105880001C00000440000840FD0C000000000E4019
:1058900024021006014901204860704700000E40B4
:1058A00001200249C04348607047000000000E40DC
:1058B00010B5A52104468900FAF7BEFC2078022124
:1058C0000843207010BD10B5027892070DD40C2249
:1058D000825EA02A09DB038942685B00D2180A6055
:1058E000A021FFF770FAA02010BD002010BD38B530
:1058F000044688B20D46A023224600901432590077
:10590000204601F025F92946204601F0F3F801F080
:1059100031F9284638BD10B50178022211430170D3
:1059200001F04CF910BD002801D1401E7047F0B5C0
:10593000944614229E46825E069F079E089D099CFF
:105940000A9B072A02DA0320C043F0BD2022825EB0
:105950000A602221415E624611602421415E724646
:1059600011602621059A415E11602821415E39604F
:105970002C21415E31602E21415E29603021415E43
:1059800021603221415E00201960F0BDF0B595B074
:1059900015460E46040023D0606D00280FD00FAAD4
:1059A0000021E068FDF7D8FC0F994810C907616D28
:1059B0001AD040000A5A5219D203120C0A52314628
:1059C000E068FBF769F9224610904832111FE06841
:1059D000FDF7C2FC1098002809DA0B3007D007E168
:1059E0000020C04315B0F0BD40000D52E7E720464F
:1059F00020300090234600224C331146E068FDF72A
:105A000015F90CA814900DA812900EA81190002062
:105A10000C900D900E90676D002F75D0206C40108B
:105A20000690606C002802DDA06C421000E00022AD
:105A3000E66C701000218C4608E04300FB5A401EC3
:105A4000491C9C44002801DA069BC018904201D0F2
:105A50003229F2DB002903DD6046FAF7FDFB8446BC
:105A6000206D7110002640108646674B3546324641
:105A7000714514D04800385A2D18824274DB834295
:105A800073DC0698491C761C814200DB00217145BD
:105A9000F0D1002E03DD50001018C01885101498A6
:105AA000002800D00C951298002801D060460D9077
:105AB0006046002801DC002D60DD216E61457DDC43
:105AC000E06E022806DBA16A606E0A1A1E2A01DC5B
:105AD00081421ADAA16E60460818A0660590E16E50
